:020000040000FA
:100000008316C730850000308600043087008312D5
:1000100011202008A2002D202008A30049206720DD
:100020000828831680309F00831241309F001F15DF
:100030001F1918280630A10003109E0DA10B1C28C3
:100040001E08A00083160230A10003109E0CA10B15
:1000500025281E088312A0070800831680309F0001
:10006000831249309F001F151F1934280630A10044
:1000700003109E0DA10B38281E08A0008316023025
:10008000A10003109E0CA10B41281E088312A0079B
:100090000800860122082302031952280318602849
:1000A00059280800861506168612061486140611AD
:1000B0005128861506168612061486100611512838
:1000C0008615061286120614861406115128071486
:1000D000A520071010108F018E010030071D6E281B
:1000E00010140719712810100F08A80005302802F5
:1000F0000318982886019C209C209C2086150612B7
:1001000086160614861006159C209C209C2022082A
:100110002302031C922886150612861606108610E6
:1001200006119828861106128612061486100615E6
:100130009C209C209C2008005030A400A500A60014
:10014000A50BA328A60BA0280800A628A728A82846
:020150000800A5
:040152000034003441
:02400E00393F38
:00000001FF
